{
  "contractName": "Feature",
  "abi": [
    {
      "constant": true,
      "inputs": [
        {
          "name": "",
          "type": "address"
        }
      ],
      "name": "balances",
      "outputs": [
        {
          "name": "",
          "type": "uint256"
        }
      ],
      "payable": false,
      "stateMutability": "view",
      "type": "function"
    },
    {
      "constant": true,
      "inputs": [],
      "name": "numBackers",
      "outputs": [
        {
          "name": "",
          "type": "uint256"
        }
      ],
      "payable": false,
      "stateMutability": "view",
      "type": "function"
    },
    {
      "constant": true,
      "inputs": [
        {
          "name": "",
          "type": "uint256"
        }
      ],
      "name": "feats",
      "outputs": [
        {
          "name": "feataccnt",
          "type": "address"
        },
        {
          "name": "name",
          "type": "string"
        },
        {
          "name": "owneracnt",
          "type": "address"
        },
        {
          "name": "amtneeded",
          "type": "uint256"
        },
        {
          "name": "started",
          "type": "bool"
        },
        {
          "name": "completed",
          "type": "bool"
        },
        {
          "name": "doesExist",
          "type": "bool"
        }
      ],
      "payable": false,
      "stateMutability": "view",
      "type": "function"
    },
    {
      "constant": true,
      "inputs": [],
      "name": "numFeats",
      "outputs": [
        {
          "name": "",
          "type": "uint256"
        }
      ],
      "payable": false,
      "stateMutability": "view",
      "type": "function"
    },
    {
      "constant": true,
      "inputs": [
        {
          "name": "",
          "type": "address"
        }
      ],
      "name": "devs",
      "outputs": [
        {
          "name": "name",
          "type": "string"
        },
        {
          "name": "doesExist",
          "type": "bool"
        }
      ],
      "payable": false,
      "stateMutability": "view",
      "type": "function"
    },
    {
      "constant": true,
      "inputs": [
        {
          "name": "",
          "type": "uint256"
        }
      ],
      "name": "backers",
      "outputs": [
        {
          "name": "name",
          "type": "string"
        },
        {
          "name": "adr",
          "type": "address"
        },
        {
          "name": "featnum",
          "type": "uint256"
        },
        {
          "name": "amount",
          "type": "uint256"
        },
        {
          "name": "votedfor",
          "type": "bool"
        }
      ],
      "payable": false,
      "stateMutability": "view",
      "type": "function"
    },
    {
      "inputs": [],
      "payable": false,
      "stateMutability": "nonpayable",
      "type": "constructor"
    },
    {
      "anonymous": false,
      "inputs": [
        {
          "indexed": false,
          "name": "devID",
          "type": "address"
        }
      ],
      "name": "AddedDeveloper",
      "type": "event"
    },
    {
      "anonymous": false,
      "inputs": [
        {
          "indexed": false,
          "name": "featid",
          "type": "address"
        }
      ],
      "name": "AddedFeature",
      "type": "event"
    },
    {
      "anonymous": false,
      "inputs": [
        {
          "indexed": false,
          "name": "featid",
          "type": "address"
        }
      ],
      "name": "GoalReached",
      "type": "event"
    },
    {
      "anonymous": false,
      "inputs": [
        {
          "indexed": false,
          "name": "featnum",
          "type": "uint256"
        }
      ],
      "name": "StartedFeature",
      "type": "event"
    },
    {
      "anonymous": false,
      "inputs": [
        {
          "indexed": false,
          "name": "featnum",
          "type": "uint256"
        }
      ],
      "name": "CompletedFeature",
      "type": "event"
    },
    {
      "anonymous": false,
      "inputs": [
        {
          "indexed": false,
          "name": "featnum",
          "type": "uint256"
        }
      ],
      "name": "FeatureConfirmed",
      "type": "event"
    },
    {
      "anonymous": false,
      "inputs": [
        {
          "indexed": true,
          "name": "_from",
          "type": "address"
        },
        {
          "indexed": true,
          "name": "_to",
          "type": "address"
        },
        {
          "indexed": false,
          "name": "_value",
          "type": "uint256"
        }
      ],
      "name": "Transfer",
      "type": "event"
    },
    {
      "constant": false,
      "inputs": [
        {
          "name": "name",
          "type": "string"
        },
        {
          "name": "amount",
          "type": "uint256"
        }
      ],
      "name": "addDeveloper",
      "outputs": [],
      "payable": false,
      "stateMutability": "nonpayable",
      "type": "function"
    },
    {
      "constant": false,
      "inputs": [
        {
          "name": "feataccnt",
          "type": "address"
        },
        {
          "name": "amtneeded",
          "type": "uint256"
        },
        {
          "name": "name",
          "type": "string"
        }
      ],
      "name": "addFeatureBid",
      "outputs": [],
      "payable": false,
      "stateMutability": "nonpayable",
      "type": "function"
    },
    {
      "constant": false,
      "inputs": [
        {
          "name": "name",
          "type": "string"
        },
        {
          "name": "featnum",
          "type": "uint256"
        },
        {
          "name": "amount",
          "type": "uint256"
        }
      ],
      "name": "fundFeature",
      "outputs": [],
      "payable": false,
      "stateMutability": "nonpayable",
      "type": "function"
    },
    {
      "constant": false,
      "inputs": [
        {
          "name": "featnum",
          "type": "uint256"
        }
      ],
      "name": "setstarted",
      "outputs": [],
      "payable": false,
      "stateMutability": "nonpayable",
      "type": "function"
    },
    {
      "constant": false,
      "inputs": [
        {
          "name": "featnum",
          "type": "uint256"
        }
      ],
      "name": "setcomplete",
      "outputs": [],
      "payable": false,
      "stateMutability": "nonpayable",
      "type": "function"
    },
    {
      "constant": false,
      "inputs": [
        {
          "name": "featnum",
          "type": "uint256"
        },
        {
          "name": "backernum",
          "type": "uint256"
        }
      ],
      "name": "votecomplete",
      "outputs": [],
      "payable": false,
      "stateMutability": "nonpayable",
      "type": "function"
    },
    {
      "constant": false,
      "inputs": [
        {
          "name": "amount",
          "type": "uint256"
        }
      ],
      "name": "gimmecash",
      "outputs": [],
      "payable": false,
      "stateMutability": "nonpayable",
      "type": "function"
    },
    {
      "constant": true,
      "inputs": [
        {
          "name": "addr",
          "type": "address"
        }
      ],
      "name": "getBalance",
      "outputs": [
        {
          "name": "",
          "type": "uint256"
        }
      ],
      "payable": false,
      "stateMutability": "view",
      "type": "function"
    }
  ],
  "bytecode": "0x6060604052341561000f57600080fd5b6116e38061001e6000396000f3006060604052600436106100d0576000357c0100000000000000000000000000000000000000000000000000000000900463ffffffff16806327e235e3146100d55780633b100db8146101225780633b38c6ee1461014b578063519884b1146101b157806356b0ae96146101d457806359da953d146102fe5780636ab38c94146103215780639a527cfa1461034a5780639f45ae341461036d578063a290d936146103dc578063c8e2490514610408578063e9d80020146104c5578063ec7be17b146105ad578063f8b2cb4f14610632575b600080fd5b34156100e057600080fd5b61010c600480803573ffffffffffffffffffffffffffffffffffffffff1690602001909190505061067f565b6040518082815260200191505060405180910390f35b341561012d57600080fd5b610135610697565b6040518082815260200191505060405180910390f35b341561015657600080fd5b6101af600480803590602001908201803590602001908080601f0160208091040260200160405190810160405280939291908181526020018383808284378201915050505050509190803590602001909190505061069d565b005b34156101bc57600080fd5b6101d260048080359060200190919050506107df565b005b34156101df57600080fd5b6101f560048080359060200190919050506108b3565b604051808873ffffffffffffffffffffffffffffffffffffffff1673ffffffffffffffffffffffffffffffffffffffff168152602001806020018773ffffffffffffffffffffffffffffffffffffffff1673ffffffffffffffffffffffffffffffffffffffff168152602001868152602001851515151581526020018415151515815260200183151515158152602001828103825288818151815260200191508051906020019080838360005b838110156102bd5780820151818401526020810190506102a2565b50505050905090810190601f1680156102ea5780820380516001836020036101000a031916815260200191505b509850505050505050505060405180910390f35b341561030957600080fd5b61031f60048080359060200190919050506109f4565b005b341561032c57600080fd5b610334610a44565b6040518082815260200191505060405180910390f35b341561035557600080fd5b61036b6004808035906020019091905050610a4a565b005b341561037857600080fd5b6103da600480803590602001908201803590602001908080601f01602080910402602001604051908101604052809392919081815260200183838082843782019150505050505091908035906020019091908035906020019091905050610b1e565b005b34156103e757600080fd5b6104066004808035906020019091908035906020019091905050610e22565b005b341561041357600080fd5b61043f600480803573ffffffffffffffffffffffffffffffffffffffff16906020019091905050611198565b604051808060200183151515158152602001828103825284818151815260200191508051906020019080838360005b8381101561048957808201518184015260208101905061046e565b50505050905090810190601f1680156104b65780820380516001836020036101000a031916815260200191505b50935050505060405180910390f35b34156104d057600080fd5b6104e66004808035906020019091905050611261565b60405180806020018673ffffffffffffffffffffffffffffffffffffffff1673ffffffffffffffffffffffffffffffffffffffff16815260200185815260200184815260200183151515158152602001828103825287818151815260200191508051906020019080838360005b8381101561056e578082015181840152602081019050610553565b50505050905090810190601f16801561059b5780820380516001836020036101000a031916815260200191505b50965050505050505060405180910390f35b34156105b857600080fd5b610630600480803573ffffffffffffffffffffffffffffffffffffffff1690602001909190803590602001909190803590602001908201803590602001908080601f0160208091040260200160405190810160405280939291908181526020018383808284378201915050505050509190505061135c565b005b341561063d57600080fd5b610669600480803573ffffffffffffffffffffffffffffffffffffffff169060200190919050506115c9565b6040518082815260200191505060405180910390f35b60056020528060005260406000206000915090505481565b60075481565b604080519081016040528083815260200160011515815250600260003373ffffffffffffffffffffffffffffffffffffffff1673ffffffffffffffffffffffffffffffffffffffff1681526020019081526020016000206000820151816000019080519060200190610710929190611612565b5060208201518160010160006101000a81548160ff0219169083151502179055509050507f58b2c557b43b44d6e00075540a13be76c1f369fba12740e9028c9e73b4ee628033604051808273ffffffffffffffffffffffffffffffffffffffff1673ffffffffffffffffffffffffffffffffffffffff16815260200191505060405180910390a180600560003373ffffffffffffffffffffffffffffffffffffffff1673ffffffffffffffffffffffffffffffffffffffff168152602001908152602001600020819055505050565b6003600082815260200190815260200160002060020160009054906101000a900473ffffffffffffffffffffffffffffffffffffffff1673ffffffffffffffffffffffffffffffffffffffff163373ffffffffffffffffffffffffffffffffffffffff1614156108b05760016003600083815260200190815260200160002060040160006101000a81548160ff0219169083151502179055507f178fd0250aee143deea66219ac857414d2a2dcbae23956a2d4bfa0c034b7c607816040518082815260200191505060405180910390a15b50565b60036020528060005260406000206000915090508060000160009054906101000a900473ffffffffffffffffffffffffffffffffffffffff1690806001018054600181600116156101000203166002900480601f0160208091040260200160405190810160405280929190818152602001828054600181600116156101000203166002900480156109855780601f1061095a57610100808354040283529160200191610985565b820191906000526020600020905b81548152906001019060200180831161096857829003601f168201915b5050505050908060020160009054906101000a900473ffffffffffffffffffffffffffffffffffffffff16908060030154908060040160009054906101000a900460ff16908060040160019054906101000a900460ff16908060040160029054906101000a900460ff16905087565b80600560003373ffffffffffffffffffffffffffffffffffffffff1673ffffffffffffffffffffffffffffffffffffffff1681526020019081526020016000206000828254019250508190555050565b60065481565b6003600082815260200190815260200160002060020160009054906101000a900473ffffffffffffffffffffffffffffffffffffffff1673ffffffffffffffffffffffffffffffffffffffff163373ffffffffffffffffffffffffffffffffffffffff161415610b1b5760016003600083815260200190815260200160002060040160016101000a81548160ff0219169083151502179055507fcd9128b25121ee4b6dd7c84f97dfbfc2be5af6ae5bb5210681076dd1fb700c28816040518082815260200191505060405180910390a15b50565b600060a0604051908101604052808581526020013373ffffffffffffffffffffffffffffffffffffffff168152602001848152602001838152602001600015158152506004600060075481526020019081526020016000206000820151816000019080519060200190610b92929190611612565b5060208201518160010160006101000a81548173ffffffffffffffffffffffffffffffffffffffff021916908373ffffffffffffffffffffffffffffffffffffffff160217905550604082015181600201556060820151816003015560808201518160040160006101000a81548160ff02191690831515021790555090505060076000815480929190600101919050555081600560003373ffffffffffffffffffffffffffffffffffffffff1673ffffffffffffffffffffffffffffffffffffffff168152602001908152602001600020600082825403925050819055506003600084815260200190815260200160002060000160009054906101000a900473ffffffffffffffffffffffffffffffffffffffff16905081600560008373ffffffffffffffffffffffffffffffffffffffff1673ffffffffffffffffffffffffffffffffffffffff168152602001908152602001600020600082825401925050819055508073ffffffffffffffffffffffffffffffffffffffff163373ffffffffffffffffffffffffffffffffffffffff167fddf252ad1be2c89b69c2b068fc378daa952ba7f163c4a11628f55a4df523b3ef846040518082815260200191505060405180910390a36003600084815260200190815260200160002060030154600560008373ffffffffffffffffffffffffffffffffffffffff1673ffffffffffffffffffffffffffffffffffffffff168152602001908152602001600020541115610e1c577f032d0b6fb0b369dd3d7406088b1b3ca11d9d7783039824774cf780292a22373781604051808273ffffffffffffffffffffffffffffffffffffffff1673ffffffffffffffffffffffffffffffffffffffff16815260200191505060405180910390a15b50505050565b60006003600084815260200190815260200160002060040160019054906101000a900460ff168015610eb557503373ffffffffffffffffffffffffffffffffffffffff166004600084815260200190815260200160002060010160009054906101000a900473ffffffffffffffffffffffffffffffffffffffff1673ffffffffffffffffffffffffffffffffffffffff16145b8015610ee257506004600083815260200190815260200160002060040160009054906101000a900460ff16155b15611193576001600081548092919060010191905055506002600754811515610f0757fe5b0460015411156111925760006003600085815260200190815260200160002060040160026101000a81548160ff0219169083151502179055506003600084815260200190815260200160002060000160009054906101000a900473ffffffffffffffffffffffffffffffffffffffff1690506003600084815260200190815260200160002060020160009054906101000a900473ffffffffffffffffffffffffffffffffffffffff1673ffffffffffffffffffffffffffffffffffffffff168173ffffffffffffffffffffffffffffffffffffffff167fddf252ad1be2c89b69c2b068fc378daa952ba7f163c4a11628f55a4df523b3ef600560008573ffffffffffffffffffffffffffffffffffffffff1673ffffffffffffffffffffffffffffffffffffffff168152602001908152602001600020546040518082815260200191505060405180910390a3600560008273ffffffffffffffffffffffffffffffffffffffff1673ffffffffffffffffffffffffffffffffffffffff16815260200190815260200160002054600560006003600087815260200190815260200160002060020160009054906101000a900473ffffffffffffffffffffffffffffffffffffffff1673ffffffffffffffffffffffffffffffffffffffff1673ffffffffffffffffffffffffffffffffffffffff168152602001908152602001600020600082825401925050819055506000600560008373ffffffffffffffffffffffffffffffffffffffff1673ffffffffffffffffffffffffffffffffffffffff168152602001908152602001600020819055507fe141c1a1c4c1eeda4b6ec4d92bf207908304d59f459c21c5f6e2efb2ef6c9fc9836040518082815260200191505060405180910390a15b5b505050565b6002602052806000526040600020600091509050806000018054600181600116156101000203166002900480601f0160208091040260200160405190810160405280929190818152602001828054600181600116156101000203166002900480156112445780601f1061121957610100808354040283529160200191611244565b820191906000526020600020905b81548152906001019060200180831161122757829003601f168201915b5050505050908060010160009054906101000a900460ff16905082565b6004602052806000526040600020600091509050806000018054600181600116156101000203166002900480601f01602080910402602001604051908101604052809291908181526020018280546001816001161561010002031660029004801561130d5780601f106112e25761010080835404028352916020019161130d565b820191906000526020600020905b8154815290600101906020018083116112f057829003601f168201915b5050505050908060010160009054906101000a900473ffffffffffffffffffffffffffffffffffffffff16908060020154908060030154908060040160009054906101000a900460ff16905085565b60011515600260003373ffffffffffffffffffffffffffffffffffffffff1673ffffffffffffffffffffffffffffffffffffffff16815260200190815260200160002060010160009054906101000a900460ff16151514156115c45760e0604051908101604052808473ffffffffffffffffffffffffffffffffffffffff1681526020018281526020013373ffffffffffffffffffffffffffffffffffffffff1681526020018381526020016000151581526020016000151581526020016001151581525060036000600654815260200190815260200160002060008201518160000160006101000a81548173ffffffffffffffffffffffffffffffffffffffff021916908373ffffffffffffffffffffffffffffffffffffffff1602179055506020820151816001019080519060200190611499929190611612565b5060408201518160020160006101000a81548173ffffffffffffffffffffffffffffffffffffffff021916908373ffffffffffffffffffffffffffffffffffffffff1602179055506060820151816003015560808201518160040160006101000a81548160ff02191690831515021790555060a08201518160040160016101000a81548160ff02191690831515021790555060c08201518160040160026101000a81548160ff0219169083151502179055509050507f047950503d69b507db2765b38ee013db39002f8c0d44fff0cfd6ffd6d6997b2183604051808273ffffffffffffffffffffffffffffffffffffffff1673ffffffffffffffffffffffffffffffffffffffff16815260200191505060405180910390a16006600081548092919060010191905055505b505050565b6000600560008373ffffffffffffffffffffffffffffffffffffffff1673ffffffffffffffffffffffffffffffffffffffff168152602001908152602001600020549050919050565b828054600181600116156101000203166002900490600052602060002090601f016020900481019282601f1061165357805160ff1916838001178555611681565b82800160010185558215611681579182015b82811115611680578251825591602001919060010190611665565b5b50905061168e9190611692565b5090565b6116b491905b808211156116b0576000816000905550600101611698565b5090565b905600a165627a7a723058200a2264416b213491942dc851311f33e7c4824614cf74cc3def39f63d9dfeef010029",
  "source": "pragma solidity ^0.4.2;\r\n\r\n\r\ncontract Feature {\r\n    //Store canidate\r\n     //Read canidate\r\n    event AddedDeveloper(address devID);\r\n    event AddedFeature(address featid);\r\n    event GoalReached(address featid);\r\n    event StartedFeature(uint featnum);\r\n    event CompletedFeature(uint featnum);\r\n    event FeatureConfirmed(uint featnum);\r\n    \r\n    event Transfer(address indexed _from, address indexed _to, uint256 _value);\r\n\r\n    struct Developer {\r\n        string name;\r\n        bool doesExist;\r\n    }\r\n\r\n    struct FeatureAcnt {\r\n        address feataccnt;\r\n        string name;\r\n        address owneracnt;\r\n        uint amtneeded;\r\n        bool started;\r\n        bool completed;\r\n        bool doesExist;\r\n    }\r\n\r\n    struct Backer {\r\n        string name;\r\n        address adr;\r\n        uint featnum;\r\n        uint amount;\r\n        bool votedfor;\r\n    }\r\n    \r\n    // declares a state variable - number Of Candidates\r\n    uint numDevs;\r\n    uint numVotes;\r\n    // Store accounts that have voted\r\n  //  mapping(uint => uint)public fundingRecieved;\r\n    // Store Funders\r\n   \r\n    mapping(address => Developer)public devs; \r\n    mapping(uint => FeatureAcnt)public feats; \r\n    mapping(uint => Backer)public backers;\r\n   // uint public funds;\r\n    mapping(address => uint)public balances;\r\n    uint public numFeats;\r\n    uint public numBackers;\r\n\r\n    function Feature() public {\r\n      \r\n    }\r\n    \r\n    function addDeveloper(string name, uint amount) public {\r\n        // candidateID is the return variable\r\n\r\n        // Create new Candidate Struct with name and saves it to storage.\r\n        devs[msg.sender] = Developer(name, true);\r\n        AddedDeveloper(msg.sender);\r\n        balances[msg.sender] = amount; \r\n    }\r\n    \r\n    function addFeatureBid( address feataccnt, uint amtneeded, string name) {\r\n        if (devs[msg.sender].doesExist == true) {\r\n            feats[numFeats] = FeatureAcnt(feataccnt, name, msg.sender, amtneeded, false, false, true);\r\n            AddedFeature(feataccnt);\r\n            numFeats++;\r\n        }\r\n    }\r\n\r\n    function fundFeature(string name, uint featnum, uint amount) {\r\n      //  if (feats[featid].doesExist == true && balances[msg.sender] > amount) { \r\n         //voterID is the return variable\r\n        backers[numBackers] = Backer(name, msg.sender, featnum, amount, false);\r\n        numBackers++;\r\n        balances[msg.sender] -= amount;\r\n        address featadr = feats[featnum].feataccnt;\r\n        balances[featadr] += amount;\r\n        Transfer(msg.sender, featadr, amount);\r\n        if (balances[featadr] > feats[featnum].amtneeded) {\r\n            GoalReached(featadr);\r\n        }\r\n      //  }\r\n           // return true;\r\n      //  } else {return false;}\r\n        \r\n    }\r\n\r\n    function setstarted(uint featnum) {\r\n        if (msg.sender == feats[featnum].owneracnt) {\r\n            feats[featnum].started = true;\r\n            StartedFeature(featnum);\r\n        }\r\n    }\r\n\r\n    function setcomplete(uint featnum) {\r\n        if (msg.sender == feats[featnum].owneracnt) {\r\n            feats[featnum].completed = true;\r\n            CompletedFeature(featnum);\r\n        }\r\n    }\r\n\r\n    function votecomplete(uint featnum, uint backernum ) {\r\n        if (feats[featnum].completed && backers[backernum].adr == msg.sender && !backers[backernum].votedfor) {\r\n            numVotes++;\r\n            if (numVotes > numBackers/2) {\r\n                feats[featnum].doesExist = false;\r\n                address featadr = feats[featnum].feataccnt;\r\n                Transfer(featadr, feats[featnum].owneracnt, balances[featadr]);\r\n                balances[feats[featnum].owneracnt] += balances[featadr];\r\n                balances[featadr] = 0;\r\n                FeatureConfirmed(featnum);\r\n            }\r\n        }\r\n\r\n    }\r\n\r\n    function gimmecash(uint amount) {\r\n        balances[msg.sender] += amount;\r\n    }\r\n\r\n    function getBalance(address addr) public view returns(uint) {\r\n        return balances[addr];\r\n    }\r\n    \r\n}",
  "sourcePath": "C:\\Users\\Conre\\EthereumProjects\\fund-a-feature\\contracts\\Feature.sol",
  "compiler": {
    "name": "solc",
    "version": "0.4.21+commit.dfe3193c.Emscripten.clang"
  },
  "schemaVersion": "2.0.0",
  "updatedAt": "2018-07-20T15:01:17.021Z"
}